:1000000002000375815F7590FF75A0FFD2B0D2B179
:1000100012044F75440012036ED20720072B30A044
:10002000091204E8B4FF2B02001B200810E54470FD
:100030000612031602001B12024702001B30A0FD2D
:1000400012058A12022302001B20A0FD12031602D1
:10005000001BC0E012057CD0E0F53020080CE54420
:10006000700EE5301203A302001B12020902001BEE
:1000700030010DC201E530B40F0612039802001BD7
:10008000E544B40218E530B4040874E812046802C8
:10009000001BB4060874E912046802001BE530B4C2
:1000A0000E081203CBD20102001BB40A005059E51E
:1000B00044B40207E530B402005035300506BF00F5
:1000C0000302001BBF020302001B3003031203D311
:1000D000E544B40207E5301205938005E5301205CA
:1000E000C020000FD204C20AE53012046802001BCF
:1000F00002001BE541B404028003B40805E5301298
:10010000046812048002001BE530B40F353003038D
:1001100002001BEFB4010330042574E7120468D217
:1001200003D20620001375410012062620000AC2E1
:1001300009C20A1204A002001B12048002001B0262
:10014000001BB40E004003020238E544B40139201C
:100150000354200914EF704E20044B200548E5306D
:10016000B40B16D209C20A803D20043AE530B40B24
:100170000280337E007F00C209D20AE530C39409B1
:1001800024BF12046802001BE544B40319E530B42F
:100190000A028012B40B02800DB40C028008B40D68
:1001A0000280030202381203FB30000302001BE549
:1001B00044B4010EE530C39409FEEE24BF12046876
:1001C0008079B4020EE530B40D627E0874C7120463
:1001D00068806FE530B40A097E0974C8120468802B
:1001E00061B40B097E0A74C9120468804EB40C090C
:1001F0007E0B74CA1204688049B40DA712036ED234
:100200000874CB12046802001BE530B4040574E8DE
:10021000020468B4060574E9020468B40E0280039F
:10022000B40D0812036E74E402046822C39405FE40
:10023000EE24BF120468800302001B7F01C2040287
:10024000001B7F0202001B30A0FD12058A3006064B
:100250001203CBD20122EFB402127E007F00EA4BE0
:100260006005D204020310C204020310BF014AE574
:1002700044B40215E546602D1546C3ED13FDE54671
:100280007005C20402030980798C318D32E5314555
:10029000326012120333AC31AD32EC4D7005C20442
:1002A000020309805D7E007F00C209C20AEA4B603A
:1002B00004D204805BC2048057BF0059200A272063
:1002C0000528E544B4020CE545604A1545C3EB1327
:1002D000FB802F8A318B32E531453260381203338F
:1002E000AA31AB32801CC20A8026C205C202C204F7
:1002F0007A007B0075350075360075450074EB0299
:10030000046874EA120468800C74ED1204688005B5
:1003100074EE1204682230A0FD12058A200707D26D
:100320000774EC020468C20775440012036E74E09F
:100330000204687533007534007536007910C3E522
:100340003233F532E53133F531E53633F536C3E591
:100350003433F534E53333F533E536C3940A4005D9
:10036000F536433401D9D7853331853432227A00CA
:100370007B007C007D007E007F007541007545009C
:10038000754600C200C201C202C203C204C205C255
:1003900006C208C209C20A2275440012036E74E53F
:1003A000020468B401087544017530E18014B40298
:1003B000087544027530E28009B4030E7544037574
:1003C00030E312036EE5300204682212036E74E417
:1003D0000204680203CB3003217C007D007E007F95
:1003E00000753500753600754100754600C200C2C3
:1003F00003C206D20574E61204682220002F2003EF
:1004000025BF0206EEB408088023BF012030041D7A
:10041000120626200014E544B40109C20512048A1C
:1004200012042E22D2031203D622120480227C0050
:100430007D007E007F0075350075360075410075C2
:100440004600C200C203C204C206C209C20A225345
:10045000890F43892053877F758DFD758BFD7598B6
:1004600050C299C298D28E22F547C299F599309917
:10047000FDC2993098FDE599C298B406F6E5472289
:1004800074D2120468E54102046874EF12046874BF
:100490000030020104120468EA120468EB020468E6
:1004A000E544B4020974D1120468EB020468EEB4A6
:1004B000042074D31204687400300201041204682A
:1004C000EA120468EB120468E535120468E53602A6
:1004D000046874D0120468740030020104120468C5
:1004E000EA120468EB0204687590F0E59054F0B4E9
:1004F000F00374FF2212058A7590F0E59054F0B471
:10050000F00374FF227590FEE59030E44230E5423E
:1005100030E64230E7547590FDE59030E43A30E53E
:100520003A30E63A30E7467590FBE59030E43230F9
:10053000E53230E63230E7387590F7E59030E43652
:1005400030E50930E63330E72A74FF227400227464
:100550000122740222740322740422740522740698
:1005600022740722740822740922740A22740B224E
:10057000740C22740D22740E22740F227590F0E513
:100580009054F0B4F0F612058A22781479FFD9FE5F
:10059000D8FA22F530BF0011E545B40800501BEB36
:1005A000234530FB7A00054522E546B40800500A91
:1005B000ED234530FD7C0005462275410802082BDD
:1005C000F530BF001C8A318B321205FD4052E532F6
:1005D0002530F532E53134004046F531AA31AB32F1
:1005E000228C318D321205FD4036E5322530F53250
:1005F000E5313400402AF531AC31AD3222E53275B7
:10060000F00AA4F53285F036E53175F00AA4F5312B
:10061000E5F0700AE5312536F5314002C322D322D8
:1006200075410402082BEE600EB40C0050091475DD
:10063000F003A490063873220206590206860206C9
:10064000B502072602079402079A0207A00207A62E
:100650000207AC0207B60207E220020CEB2DFBEA10
:100660003CFA500302081F22ECC39A40117005EDBA
:10067000C39B400AC3ED9BFBEC9AFAC20222C3EB78
:100680009DFBEA9CFA22200220EAC39C40117005DF
:10069000EBC39D400AC3EB9DFBEA9CFAC20222C356
:1006A000ED9BFBEC9AFAD20222EB2DFBEA3CFA50CE
:1006B0000302081F228B378A38753900753A008D7E
:1006C0003F8C40753B00753C00753D00753E0078E1
:1006D00010E53F54016019C3E53B2537F53BE53C88
:1006E0003538F53CE53D3539F53DE53E353AF53EE5
:1006F000C3E53733F537E53833F538E53933F539C0
:10070000E53A33F53AC3E54013F540E53F13F53FCD
:10071000D8BFE53D453E600302081FAA3CAB3BEA5B
:100720004B7002C20222EC4D70030208258A318B05
:10073000327533007534007535007536007810C396
:10074000E53233F532E53133F531E53633F536E56B
:100750003533F5357542005003754201C3E5343336
:10076000F534E53333F533E542700EE535C39C408F
:10077000167006E536C39D400EC3E5369DF536E599
:10078000359CF535433401D8B6AA33AB34EA4B7007
:1007900002C20222EB5DFB7A0022EB4DFB7A0022C3
:1007A000EB6DFB7A0022EBF4FB7A0022EAFCEBFD16
:1007B000C2021206B522EC4D70057A007B01228A36
:1007C000488B49EC4D146019ED70011C1DC004C02C
:1007D00005AC48AD491206B5D005D0042000028012
:1007E000E2228A488B49E548454970057A007B003A
:1007F00022780008E888F0A4ACF0FDC3E5499DE547
:10080000489C400CE5486C70EAE5496D70E580084D
:10081000187A00E8FBC202227A00E8FBC2022275C5
:0E082000410102082B75410302082BD2002271
:00000001FF
