:03000000020030CB
:030023000204755F
:1000300075815F759000D2B0D2B175A000753100A6
:0F00400075550075568075200075210012045CFF
:10004F00D2ACD2AF120886120825120244200A0E33
:0E005F003004FA1208C4200AF41204C680EF1E
:10006D00120485F530B40A0050222430F530E53104
:0F007D00B4020AC201E5301206C602005CC201DD
:0F008C00755401E53012083E055602005CE53060
:0F009B00B4E0061201F902005CB4E1097531010D
:0F00AA0012049F02005CB4E20975310212049F38
:0F00B90002005CB4E30975310312049F02005C7E
:0F00C800B4E40612049F02005CB4E506120215B0
:0F00D70002005CB4E6061202F602005CB4E721F8
:0F00E600D206C201743DF530E531B40207E530B2
:0F00F5001206C68007E53012083E055612087A3B
:0F01040002005CB4E80C3009030207711206FA1E
:0F01130002005CB4E90C30090302078212070DE9
:0E01220002005CB4CB08C20412076302005C4A
:0F013000B4EC0612024402005CB4EA0B20060590
:0E013F001203BAC20102005CB4EB09200603F1
:0E014D0012041802005CB4ED08D2011203BACD
:0E015B0002005CB4EE08C2011203BA02005C9E
:10016900B4D00AC201C20412052B02005CB4D10F3B
:0F017900C201C204120485F53312056102005C55
:10018800B4D20DC201C20412048512038A02005CB3
:10019800B4D30AC201C20412054102005CB4EF0ADA
:0F01A800C201C20512032F02005CE530B4C00390
:0F01B700020253B4C103020253B4C20302025343
:0F01C600B4C303020253B4C403020253B4C5030B
:0F01D500020253B4C603020253B4C7030202531B
:0F01E400B4C803020253B4C903020253B4CA03DE
:0E01F30002025302005C75310012087A74019A
:0E02010012083A74C512083A9008E512084F28
:0F020F001208AB020215753100C209C201C20408
:0F021E00C205C2061206BF12087A740112083A0E
:10022D00748012083A9008EF12084F74C012083A01
:0F023D009008FF12084F22C201C203C204C2057B
:0E024C00C206740802083AE530B4C819C201AF
:0F025A00755402745E12083E743212083E055647
:10026900055612087A02005CB4CA27C20175540403
:0F027900745E12083E743012083E742E12083E56
:10028800743512083E055605560556055612087A65
:0E02980002005CB4C90885303A75305E800CF7
:0F02A60085303AC394C09008DD93F5307554014C
:0F02B500300118E531B40207E5301206E9802167
:1002C400741012083AE53012083E8015D201E53167
:0F02D400B40207E5301206C68007E53012083E77
:1002E3000556E53AB4C70612087A02005C12086E96
:0E02F30002005CC201D205C2067554017401FE
:1003010012083AE531B402151206BF74411206C64D
:0F031100744E1206C674531206C602086E74802C
:0F03200012083A9008EB12084F75568302086EC8
:0E032F00120485C2006002D200120485F5326D
:0F033D00120485F533020345748012083A7810D4
:0F034C00742012083ED8F9748012083A753A00EE
:10035B00300007742D12083E053A8532348533354B
:10036B00120648253AF53A85323485333512065F45
:0F037B007480253AF55675540112083A02086E3F
:10038A00F53012087A12085AE530B401059009933B
:10039A00801BB403059009A28013B404059009B127
:1003AA00800BB408059009C280039009D202084F55
:1003BA00C201E531B40233E552604F740812083ABB
:1003CA0015521203D41207208040C201E552601967
:0F03DA00142440F8E6B42602800DB47C0280089B
:0E03E900B45E028003B42102D2012285543A90
:0E03F700120446153AE53A6011300507E55646
:0F040500B483028007120446153A80EB75540148
:1004140012086E22C201C205E531B402091206BFF8
:0F04240012072002086E748012083A78037420C1
:1004330012083ED8F9755680755401748012083A33
:0F04430002086EE556B480012214F55612083AED
:10045200742012083EE55602083A53890F43892058
:1004620053877F758DFD758BFD759850C299C29823
:10047200D28E22309807C298859959D20A309902B1
:10048200C29932300AFDC2ACE559C20AC0E0C29933
:0F0492007599063099FDC299D2ACD0E022E531C0
:1004A1007003020215C201C205C206C2091206BFCB
:0F04B100740112083A755500755680D204D203B3
:1004C000D2081204C622200959740C12083AE531E8
:1004D000B40105900933800BB402059009538003E1
:0F04E000900973E5822555F582E5833400F58395
:0F04EF0074C012083A7810E49312083EA3D8F8AC
:1004FE000555E555540FF555E55612083A300303E8
:10050E00200804740C8002740E12083AB208E556E4
:10051E0012083A22E557B404030207F722120485A3
:10052E00C2006002D200120485F532120485F53342
:0F053E00020590120485C2006002D200120485EB
:0F054D00F532120485F533120485F53B1204854F
:0F055C00F53C0205F3F53312087A74C012083A21
:10056B007808742012083ED8F985333A7808E53AB2
:10057B005480600474318002743012083EE53A23D3
:10058B00F53AD8EA2212087A853234853335E534C8
:10059B004535701474C012083A780F742012083E57
:0F05AB00D8F9743012083E2278001206822430EC
:1005BA00C0E008E534453570F28839E830000104B6
:1005CA00F5F07410C395F0F974C012083AE960079F
:0F05DA00742012083ED9F9300005742D12083E26
:1005E900A839D0E012083ED8F92212087A853234A7
:0E05F900853335120648F53F853B34853C3589
:10060700120648253F04F53F300002053F7410C32A
:10061700953FF874C012083AE86007742012083E44
:10062700D8F9300005742D12083E853234853335EC
:0E06370012065F745212083E853B34853C3536
:0E06450002065FE5344535700374012278002B
:1006530012068208E534453570F6E822E53445355F
:100663007005743002083E78001206822430C0E020
:0F06730008E534453570F2D0E012083ED8F92280
:0F0682007536007537007538007910C3E53533CC
:10069100F535E53433F534E53833F538C3E537332B
:1006A100F537E53633F536E538C3940A4005F538B4
:0E06B100433701D9D7853634853735E53822F1
:0F06BF0075520075530022F530E552B412012236
:1006CE00784028F8E530F60552E552C394104006FE
:0F06DE006004F553803C7553008037F530E552CA
:0F06ED00600A142440F8E530F612072022E531A8
:0F06FC00B40220E552C3941040196017755300E3
:10070B008013E531B4020DE552C39410400660042A
:10071B00F553800122748012083A7840E55328F88B
:0F072B00E552C39553F9B41002800440027910CF
:0F073A008930E96007E612083E08D9F97410C348
:0F0749009530F9E96007742012083ED9F9E530C0
:0F075800B41001142480F55602083AD209C204E5
:0E07670012087A75570012079222E5577005A6
:0F0775007557048002155712079202005C055752
:10078400E557B4050375570012079202005CC204D2
:0F079400740112083AE557B400059009D8801B8C
:1007A300B401059009F88013B40205900A19800B6F
:1007B300B40305900A3A8003900A5B748012083AE6
:1007C30012084FE557B40409755800D2041207F70D
:0F07D30022B400059009E98013B40105900A09CA
:0F07E200800BB40205900A2A8003900A4B74C062
:1007F10012083A02084F740C12083A900A6CE5820A
:0F0801002558F582E5833400F58374C012083A58
:0E0810007810E49312083EA3D8F80558E55876
:0E081E00B43D0375580022743812083A740C69
:10082C0012083A740612083A740112083A22C2A04D
:0F083C008002D2A0F590C2A1D2A2120897C2A248
:0F084B0012089A22E493600612083EA380F62258
:10085A0074C012083A7810742012083ED8F974C08D
:10086A0012083A22D203740E02083AE55602083AEE
:10087A00C203740C02083AE55602083AC000C001E5
:10088A00785079FFD9FED8FAD001D0002200002290
:10089A00C000C001780479FFD9FED8FAD001D0008F
:0F08AA0022C000C001C0027A0878FF79FFD9FE92
:0F08B900D8FADAF6D002D001D00022C000C00178
:1008C800C0027A0278FF79FFD9FED8FADAF6D002A8
:1008D800D001D000222B2D2A2F267C5E21524541A3
:1008E800445900414E53004D4F4445532053454C05
:1008F800454354494F4E00313A415220323A4C4F09
:100908004720333A4144560041524954484D4554D2
:10091800494300386269742D4C4F474943004144AC
:1009280056414E4345204D4F44450020202041521A
:100938004954484D45544943202020202020415205
:100948004954484D455449432020202020203862EE
:1009580069742D4C4F4749432020202020203862BD
:1009680069742D4C4F47494320202020204144568C
:10097800414E4345204D4F444520202020414456B8
:10098800414E4345204D4F444520204552524F5239
:100998003A4F564552464C4F57004552524F523ADD
:1009A800444956205A45524F004552524F523A49EF
:1009B8004E5055542053495A45004552524F523AC9
:1009C8004D4158203820424954004552524F520058
:1009D8003C2D205343524F4C4C494E4720202D3E2E
:1009E80000343D4C45465420363D52494748540052
:1009F8003C2D2041524954484D45544943202D3EF1
:100A080000413D2B20423D2D20433D2A20443D2FCF
:100A1800003C2D20386269742D4C4F474943202DE6
:100A28003E00413D2620423D7C20433D5E20443D22
:100A380021003C2D2020414456414E434520202092
:100A48002D3E00413D5E3220423D5E20433D5E30FA
:100A58002E35003C2D20444556454C4F50455220DC
:100A6800202D3E0044414E49454C204348454520F1
:100A7800202020474F48205348414F205345414E9E
:100A88002020202054414E20452D4B454E2020202B
:100A9800205448454E204D554E2050494E20202088
:100AA8002044414E49454C204348454520202020BC
:00000001FF
