:1000000002000375815F759000D2B0D2B175A00077
:10001000753100755500755680C200C201C202C21A
:1000200003C204C205C206C208C20912031D120897
:100030003B1207D212030E20980E3004FA120879F0
:100040002098F41203B680EF120336F530B40A009C
:1000500050222430F530E531B4020AC201E53012F5
:100060000518020037C201755401E5301207FD057D
:1000700056020037E530B4E00612034C020037B4F4
:10008000E109753101120392020037B4E2097531BA
:1000900002120392020037B4E3097531031203928E
:1000A000020037B4E406120392020037B4E50612E8
:1000B0000368020037B4E606120416020037B4E7FC
:1000C00021D206C201743DF530E531B40207E530B6
:1000D0001205188007E5301207FD05561208340294
:1000E0000037B4E80C30090302045D12054C02002D
:1000F00037B4E90C30090302046E12055F020037C1
:10010000B4CB08C20412044F020037B4EC06120349
:100110000E020037B4EA0B20060512026CC201027F
:100120000037B4EB092006031202CA020037B4ED0F
:100130000812026CD201020037B4EE0812026CC23F
:1001400001020037B4D00AC201C2041205B5020090
:1001500037B4D10FC201C204120336F5331206764A
:10016000020037B4D20DC201C20412033612064691
:10017000020037B4D30AC201C2041205CB02003711
:10018000B4EF0AC201C2051205EB020037E530B434
:10019000C0028035B4C1028030B4C202802BB4C327
:1001A000028026B4C4028021B4C502801CB4C602F9
:1001B0008017B4C7028012B4C802800DB4C902808F
:1001C00008B4CA028003020037E530B4C819C2017E
:1001D000755402745E1207FD74321207FD05560550
:1001E00056120834020037B4C90885303A75305EBB
:1001F0008036B4CA27C201755404745E1207FD74B8
:10020000301207FD742E1207FD74351207FD0556D6
:1002100005560556055612083402003785303AC394
:1002200094C090089293F530755401300118E5316F
:10023000B40207E53012053B802174101207F9E57E
:10024000301207FD8015D201E531B40207E5301206
:1002500005188007E5301207FD0556E53AB4C706D4
:1002600012083402003712082D020037E531B402BB
:1002700033E552605274081207F9155212028412C3
:1002800005728043C201E5526019142440F8E6B4B7
:100290002602800DB47C028008B45E028003B42183
:1002A00002D2012285543A1202F8153A755401E53A
:1002B0003A6011300507E556B4830280071202F850
:1002C000153A80EB75540102082DC201C205E531D3
:1002D000B4020912051112057202082D748012076A
:1002E000F9780374201207FDD8F97556807554010A
:1002F00074801207F902082DE556B480012214F526
:10030000561207F974201207FDE5560207F9C201DB
:10031000C203C204C205C20674080207F953890F5A
:1003200043892053877F758DFD758BFD759850C26D
:1003300099C298D28E223098FDE599C298F530C2C4
:10034000997599063099FDC299E5302275310012F0
:10035000083474011207F974C51207F990089A124B
:10036000080E120860020368753100C209C201C29A
:1003700004C205C20612051112083474011207F9ED
:100380009008A412080E74C01207F99008B412085D
:100390000E22E53160D2C201C205C206C2091205B1
:1003A0001174011207F9755500755680D204D203F5
:1003B000D2081203B622200954740C1207F9E53151
:1003C000B401059008E8800BB40205900908800389
:1003D000900928E5822555F582E5833400F583747C
:1003E000C01207F97810E4931207FDA3D8F8055559
:1003F000E555540FF555E5561207F930030320086B
:1004000004740C8002740E1207F9B20822E557B486
:1004100004030204E322C201D205C206755401742A
:10042000011207F9E531B4021512051174411205E4
:1004300018744E120518745312051802082D748092
:100440001207F99008A012080E75568302082DD2E3
:1004500009C20412083475570012047E22E5577051
:10046000057557048002155712047E0200370557A0
:10047000E557B4050375570012047E020037C20425
:1004800074011207F9E557B4000590098D801BB47B
:1004900001059009AC8013B402059009CD800BB41E
:1004A00003059009EE8003900A0F74801207F91279
:1004B000080EE557B40409755800D2041204E3226B
:1004C000B4000590099D8013B401059009BD800B0F
:1004D000B402059009DE80039009FF74C01207F989
:1004E00002080E740C1207F9900A20E5822558F5CF
:1004F00082E5833400F58374C01207F97810E49321
:100500001207FDA3D8F80558E558B43D0375580007
:100510002275520075530022F530E552B4120122C3
:10052000784028F8E530F60552E552C394104006AD
:100530006004F553803C7553008037F530E5526018
:100540000A142440F8E530F612057222E531B402AF
:1005500020E552C39410401960177553008013E5CD
:1005600031B4020DE552C3941040066004F5538087
:10057000012274801207F97840E55328F8E552C348
:100580009553F9B410028004400279108930E96073
:1005900007E61207FD08D9F97410C39530F9E96030
:1005A0000774201207FDD9F9E530B4100114248036
:1005B000F5560207F9120336C2006002D200120398
:1005C00036F532120336F5330206A3120336C200A3
:1005D0006002D200120336F532120336F5331203ED
:1005E00036F53B120336F53C020706120336C2000D
:1005F0006002D200120336F532120336F5330206DA
:100600000174801207F9781074201207FDD8F9746C
:10061000801207F9753A00300007742D1207FD05A6
:100620003A85323485333512075B253AF53A8532FF
:10063000348533351207727480253AF556755401A6
:100640001207F902082DF530120834120819E530A6
:10065000B40105900948801BB40305900957801325
:10066000B40405900966800BB408059009778003EF
:1006700090098702080E12083474C01207F978082E
:1006800074201207FDD8F985333A7808E53A54808A
:1006900060047431800274301207FDE53A23F53AA4
:1006A000D8EA22120834853234853335E5344535AD
:1006B000701474C01207F9780F74201207FDD8F96E
:1006C00074301207FD2278001207952430C0E0082C
:1006D000E534453570F28839E830000104F5F074EE
:1006E00010C395F0F974C01207F9E960077420127D
:1006F00007FDD9F9300005742D1207FDA839D0E0A7
:100700001207FDD8F92212083485323485333512A8
:10071000075BF53F853B34853C3512075B253F047D
:10072000F53F300002053F7410C3953FF874C012C6
:1007300007F9E8600774201207FDD8F93000057446
:100740002D1207FD8532348533351207727452122B
:1007500007FD853B34853C35020772E5344535702D
:1007600003740122780012079508E534453570F6C8
:10077000E822E5344535700574300207FD78001233
:1007800007952430C0E008E534453570F2D0E0121A
:1007900007FDD8F9227536007537007538007910D5
:1007A000C3E53533F535E53433F534E53833F5381D
:1007B000C3E53733F537E53633F536E538C3940A04
:1007C0004005F538433701D9D7853634853735E5C7
:1007D000382274301207F912084F74301207F97476
:1007E000301207F974381207F9740C1207F97406FD
:1007F0001207F974011207F922C2A08002D2A0F5F3
:1008000090C2A1D2A212084CC2A212084F22E493B5
:1008100060061207FDA380F62274C01207F9781053
:1008200074201207FDD8F974C01207F922D203749C
:100830000E0207F9C203740C0207F9C000C0017868
:100840005079FFD9FED8FAD001D00022000022C092
:1008500000C001780479FFD9FED8FAD001D0002277
:10086000C000C001C0027A0878FF79FFD9FED8FA2B
:10087000DAF6D002D001D00022C000C001C0027A56
:100880000278FF79FFD9FED8FADAF6D002D001D08B
:1008900000222B2D2A2F267C5E21524541445900EF
:1008A000414E53004D4F4445532053454C4543540E
:1008B000494F4E00313A415220323A4C4F47203393
:1008C0003A4144560041524954484D455449430029
:1008D000386269742D4C4F47494300414456414E9C
:1008E0004345204D4F444500202020415249544863
:1008F0004D4554494320202020202041524954484E
:100900004D45544943202020202020386269742D11
:100910004C4F474943202020202020386269742D05
:100920004C4F4749432020202020414456414E430C
:1009300045204D4F444520202020414456414E4300
:1009400045204D4F444520204552524F523A4F5674
:100950004552464C4F57004552524F523A44495621
:10096000205A45524F004552524F523A494E505527
:10097000542053495A45004552524F523A4D41581E
:10098000203820424954004552524F52003C2D20FD
:100990005343524F4C4C494E47202D3E00343D4C62
:1009A00045465420363D5249474854003C2D20418D
:1009B000524954484D45544943202D3E00413D2B5A
:1009C00020423D2D20433D2A20443D2F003C2D2038
:1009D000386269742D4C4F474943202D3E00413DFC
:1009E0002620423D7C20433D5E20443D21003C2D9D
:1009F00020414456414E4345202020202D3E0041B9
:100A00003D5E3220423D5E20433D5E302E35003C4F
:100A10002D20446576656C6F70657220202D3E0038
:100A200044414E49454C204348454520202020471D
:100A30004F48205348414F205345414E202020200D
:100A400054414E20452D4B454E20202020544845F2
:100A50004E204D554E2050494E2020202044414EDE
:0C0A600049454C204348454520202020FB
:00000001FF
